:020000040000FA
:06000000C9EF0BF0120035
:020006000000F8
:0800080040EC05F0FB0EDBCF1C
:10001000F3FFDB06F35000090AE08EEC05F0FA0E60
:10002000F9EC05F0F3E1151CF1E1010E01D0000E31
:100030006FEF05F040EC05F03B0EE12402E3E168D0
:10004000E652E16E010EDB6A020EDB6AF90EDBCFCF
:10005000F6FFFA0EDBCFF7FFFB0EDBCFF8FF080051
:10006000F550DF6EDF5002E193EF04F0250EDF5C08
:1000700002E086EF04F0030EDB6A040EDB6A050E75
:10008000DB6A060EDB6A070EDB6AA8EC04F02D0EB5
:10009000DF5C0CE02B0EDF5C09E0200EDF5C06E08D
:1000A000230EDF5C03E0300EDF5C1AE1DF50300A24
:1000B00014E0130A0FE0030A0AE00B0A05E0060A3F
:1000C000E4E1030EDB80E1D7030EDB82DED7030E13
:1000D000DB84DBD7030EDB86D8D7030EDB88D5D7CE
:1000E0002A0EDF5C1BE1A4EC04F0F2EC04F010E05B
:1000F000030EDB8008680968130EDBCF0DF0140EC9
:10010000DBCF0EF02BEC0BF0040E06C0DBFF03D0B0
:10011000130EDBEC04F0A8EC04F00BD0090EDB6A44
:1001200049EC05F003E0BDEC05F0FAD7090EDBEC75
:1001300004F0030EDBB0DB982E0EDF5C1BE1A8ECB5
:1001400004F02A0EDF5C0BE1A4EC04F0F2EC04F006
:1001500003E1130E2DEC05F0A8EC04F00BD0090E12
:10016000DB6A49EC05F003E0BDEC05F0FAD7090EB7
:100170002DEC05F0680EDF5C07E1A8EC04F0680EDA
:10018000DF5C1DE1030E18D0740EDF5C17E07A0E01
:10019000DF5C14E0480EDF5C06E0540EDF5C03E039
:1001A0005A0EDF5C02E1020E07D06C0EDF5C03E04A
:1001B0006A0EDF5C04E1010E80EC05F0C9DBDF5064
:1001C0006E0A01E17FD31E0A01E192D1200A01E10A
:1001D0008FD13F0A01E149D11A0A01E146D10D0A46
:1001E00001E143D1200A01E140D13A0A01E13DD1C8
:1001F000200A01E13AD1260A01E135D10D0A01E1D7
:1002000032D11A0A01E1D9D0200A4AE0300A1FE0AF
:10021000460A0EE0250A01E083D3D950F90FE96EB2
:10022000FF0EDA20EA6E010EEE5E000EEE5AEE5A76
:100230008EEC05F0250EE66E95DB03E1151C01E161
:1002400069D38AEC05F001E26BD3DB2A69D3080E8F
:10025000DB6A040EDB50010806E2040EDB0452ECFC
:1002600005F0DB508BDB080EDB5009E0030EDB50A2
:10027000010B05E172DB01E04DD3080EDB6A64DBA4
:10028000EFCFDFFF02EC06F003E1151C01E142D3E2
:100290008AEC05F001E3DB2A60DB01E141D33AD3CC
:1002A000070EDB5002080FE1CEEC05F0030E95ECD3
:1002B00005F00E0EEECFDBFF0F0EEECFDBFF100EC4
:1002C000EECFDBFF20D0F70EDBCF17F0F80EDBCF41
:1002D00018F0020E175E000E185AF70E17C0DBFF5B
:1002E000F80E18C0DBFF17C0E9FF18C0EAFF85EC65
:1002F00005F0166A0E0E14C0DBFF0F0E15C0DBFFF3
:10030000100E16C0DBFF0E0EDBCFE6FF0F0EDBCFAD
:10031000E6FF100EDBCFE6FFE7EC09F0E552E55211
:10032000E552130E07C0DBFF140E08C0DBFF060EFC
:10033000DB5005E0130EC9EC05F001E26ADBEDECE1
:1003400005F002E2130E37DBB0EC05F006E0040E18
:10035000C9EC05F002E2050E2EDB030EDBB005D082
:10036000FCDA01E0D7D2080EDB6A090EDB6A0E0E5A
:10037000DBCFF6FF0F0EDBCFF7FF100EDBCFF8FF62
:100380000800F550DF6EDF5014E0F3EC05F011E2E9
:1003900002EC06F003E1151C01E1BCD2BBDB01E37A
:1003A000DB2A090EDB2AD9500E0FE96E000ECBDBDB
:1003B000E7D7D3DA01E1B4D2ADD2C6DA110EEECF6F
:1003C000DBFF120EEDCFDBFF110EDBCFE6FF120ECF
:1003D000DBCFE6FFD9EC09F0E552E552130EF3CF7F
:1003E000DBFF140EF4CFDBFF060EDB5004E0130E30
:1003F000D0DB01E20EDBEDEC05F002E2130EDBDAFE
:10040000AFDB05E0040EC5DB02E2050ED4DA030E15
:10041000DBB005D0A2DA01E07DD2080EDB6A090E5E
:10042000DB6A110EDBCFE9FF120EDBCFEAFFEFCF65
:10043000DFFFDF5014E0D7DB12E2E4DB03E1151C41
:1004400001E168D267DB01E3DB2A090EDB2A110E2A
:10045000DB2ADBCFE9FF120EE8E3DB2AE6D77DDA01
:1004600001E15ED257D2030EDB8E070EDB0410E1F2
:1004700095DB040E5ADB0A0EEECFDBFF0B0EEECF40
:10048000DBFF0C0EEECFDBFF0D0EEECFDBFF6CD0F3
:10049000070EDB5003082CE1030EDBAE0DD0B2DA01
:1004A000020E76DAEFCF14F0156A166A176A14AEE8
:1004B00039D01568166835D0F70EDBCF15F0F80E79
:1004C000DBCF16F0020E155E000E165AF70E15C0A1
:1004D000DBFFF80E16C0DBFF15C0E9FF16C0EAFF10
:1004E000EFCF14F00A0E14C0DBFF0B0EDB6A38D01E
:1004F000070EDB50020809E1030EDBAE04D059DB26
:1005000016AE10D00ED055DB0DD0030EDBAE12D0E0
:1005100079DA020E3DDAF9DA166A176A15AE02D0F8
:1005200016681768E2DA0C0E16C0DBFF0D0E17C056
:10053000DBFF1AD0F70EDBCF16F0F80EDBCF17F08B
:10054000020E165E000E175AF70E16C0DBFFF80EED
:1005500017C0DBFF16C0E9FF17C0EAFFD6DAC5DA1D
:100560000C0EDB6A0D0EDB6A060EDB5005E1010E98
:10057000F36E050EF3CFDBFF150EDB6A160EDB6A9A
:10058000D950370F146E000EDA20156E390E14C0D4
:10059000DBFF3A0E15C0DBFF380EDB6A080EDB6AA4
:1005A0000A0EAEDADF50780A12E0200A10E0280ABC
:1005B0000CE0200A0AE03F0A06E00D0A02E0200AE9
:1005C00008E1020E05D0080E03D0080EDF26100E3B
:1005D00097DA030EDBBE02D0DB92DB94DB50800B9C
:1005E00024E08ADAD890030EEB50000A08E6000EE9
:1005F000EE5C000EEE58000EEE58000EEE5815E2BE
:1006000013DA0B680C680D680E68F3EC0AF00A0E3A
:1006100002C0DBFF0B0E03C0DBFF0C0E04C0DBFFD0
:100620000D0E05C0DBFF2D0E08D0030EDBA202D09D
:100630002B0E03D0DBA408D0200EF36E170EF3CFE1
:10064000DBFF150EDB2A02D0170EDB6A050EDB502E
:1006500003E1B7D901E189D0E00E146E170E156ED3
:10066000000E166E070EDBCF17F0186A196A1A6AA9
:1006700017C00BF018C00CF019C00DF01AC00EF026
:10068000D3D958EC0BF014500224F36E155003200C
:10069000F46E16500420F86EF4CFF7FFF3CFF6FF98
:1006A0000800090EF5CFDBFF580EDF5C0FE1610E8D
:1006B000F36E090E7BD90AE3200E146E090EDBCF10
:1006C000E7FF1450E75E090EE7CFDBFF070EDBCF35
:1006D00014F0156A166A176A0FDA14C00BF015C009
:1006E0000CF016C00DF017C00EF0EECF06F0EECFF6
:1006F00007F0EECF08F0EFCF09F058EC0BF009C08F
:10070000EDFF08C0EDFF07C0EDFF06C0EFFF390E9B
:10071000DBCFE9FFDB063A0EDBCFEAFF01E2DB06C7
:10072000090EDBCFEFFF150EDB2A4BD995E1030E47
:10073000DBA61DD06F0EDF5C06E1C1D918E3150EF4
:10074000DB285BDA14D0780EDF5C09E0580EDF5C42
:1007500006E0620EDF5C03E0420EDF5C08E1020EA1
:10076000F36E160EF3CFDBFF02D0150EDB6A030E1D
:10077000DB50100B0EE0040EDBCF14F0050EDB5047
:10078000D880145406E2060EDB5003E1040EDB5061
:1007900034DA95D90AE2050EDBCFE7FF150EDB5000
:1007A000E75E050EE7CFDBFF02D0050EDB6A040E25
:1007B000DBCF14F0160E45D9D880145414E2160E6F
:1007C000DBCFE6FF150EDBCFE6FF040EDBCFE6FF47
:1007D000050EDB50E552E75CE552D880E754E55260
:1007E000D880E7545FD9030EDB50010B0BE1080EF4
:1007F000DB5008E0B2D801E08DD0080EDB50BED847
:10080000080EDB6A170EDB5007E088D9170EF1D906
:1008100003E1151C01E17ED0160EDB5016E07ED9F7
:10082000300EE66E9FD802E1151C74E077D9DFCF59
:10083000E6FFB1EC0AF0E552E552E552F4CF15F0CF
:100840000001F31C02E1151C65E0050EDBCF14F07E
:10085000160EDB50D880145409E2050EDBCFE7FFFB
:10086000160EDB50E75E050EE7CFDBFF300EE66EBF
:10087000050ECBD94FE1390EDB2ADBCFE9FF3A0E6B
:1008800001E3DB2ADBCFEAFF090EEFCFDBFFDB5012
:100890000EE044D9090EADD902E1151C3BE0390E3A
:1008A000DB2ADBCFE9FF3A0EEDE3DB2AEBD755D8A5
:1008B00031E1160EDBCFE6FF080EC3D8E552E72480
:1008C0005DD82ED0070EDB50030A1CE0010A14E0AD
:1008D000030A07E07BD9DBCFEEFF020EDBCFEDFF93
:1008E0001FD0F5D8196A17AE02D0186819682CD82D
:1008F000BCD819C0EEFF14D0EAD817BE186824D8A7
:10090000B4D80ED063D9DBCFEFFF0AD07BD905E195
:10091000151C03E1F368F46810D0FCD801E3DB2A6E
:1009200079D92FEF00F0010EDBCF14F0020EDBCFF0
:1009300015F014C0F3FF15C0F4FF3B0EE15C02E2BA
:10094000E16AE552E16ECBD029D9020E95EF05F0B0
:1009500061D90800F550DF6E1200200EE66E080E19
:1009600005EF06F0B1EC0AF0E552E552E552F3CF9F
:1009700014F0F4CF15F00001F31C1200146E156A88
:10098000D950010F4DD91450EE261550ED2212000A
:10099000185E000E195AF70E18C0DBFFF80E19C0CA
:1009A000DBFF18C0E9FF19C0EAFF1200DBCFF4FF3C
:1009B000F350F45C1200DB50E76E040EE7CFDBFF70
:1009C00012000A0EDBCF14F00B0EDBCF15F00C0E6D
:1009D000DBCF16F00D0EDBCF17F0145015101610EC
:1009E00017101200130EEECFDBFF140EEDCFDBFF5E
:1009F000130EDBCF14F0140EDBCF15F00001800EC8
:100A000015141200F70EDBCF18F0F80EDBCF19F03B
:100A10001200050EDB50E66ED950130F01D9E552D6
:100A2000E750EE6EED6A12000A0EDBCF06F00B0EF9
:100A3000DBCF07F00C0EDBCF08F00D0EDBCF09F09B
:100A40001200DBCFE6FF150EDBCFE6FF050EDB5015
:100A5000E552E724E552E7241200DB50CED8010E20
:100A6000F36E060EF3CFDBFF1200EE50EFCFEAFF7E
:100A7000E96E16C0EEFF17C0EEFF18C0EEFF1200C1
:100A8000D9CFE6FFDACFE6FFE1CFD9FFE2CFDAFF39
:100A90001200DFCFE6FFE66AA7EC0BF0E552E55265
:100AA000F3501200E76E080EE7CFDBFF1200EECF27
:100AB00014F0EECF15F0EFCF16F0176A1200050E06
:100AC000DBCF14F0150EDB50D88014541200010E49
:100AD000DBCF16F0020EDBCF17F0186A1200E552DA
:100AE000E5CFDAFFE7CFD9FF12000A0E14C0DBFF13
:100AF0000B0E15C0DBFF1200D9500A0F10EF06F0E5
:100B0000F36E070EF3CFDBFF1200EECF14F0EFCF42
:100B100015F01200010EDB2A020E1200FC0EDBCFD4
:100B2000E6FFFD0EDBCFE6FF1200145E000E155A45
:100B3000F70E14C0DBFFF80E15C0DBFF14C0E9FF91
:100B400015C0EAFF1200DA20EA6EEF2AEECFF6FFB8
:100B5000000EEF22EECFF7FFEF22EECFF8FF1200EC
:100B6000040EDBCFE6FF130EDB50E552E75C9ADFA5
:100B7000DB5004DF060EDB501200090EDB500A0DBD
:100B8000F350DF24D00FE76E090EE7CFDBFFA8EFAD
:100B900004F0DB50F36E050ED6EF04F0F70EDBCF5A
:100BA00014F0F80EDBCF15F01200DFCFE6FFB2EF46
:100BB00004F028DF030EECDE57EF05F004EC00F044
:100BC000E552E552E552E55200091200BDDEEE5055
:100BD000EFCFEAFFE96E010E1200130EDB50F36E49
:100BE000040ED6EF04F0040EDB50F36E090ED6EFC0
:100BF00004F0DBCFE6FFB2EF04F0E76E050EE7CFBF
:100C0000DBFF12008BDFD5EF05F0DBCFE6FF86DFE1
:100C1000DEEF05F0D950F90FE96EFF0EA3EF05F0F6
:0A0C2000E96E000EDA20EA6E120001
:060C2A00000E146E0F0E17
:100C3000156E14C0F3FF15C0F4FF00D01200D9CF19
:100C4000E6FFE1CFD9FF0F01966A999499929092AD
:100C5000FE0EDB50E8B09084E8A09094FD0EDBCF50
:100C60008DFF0000000090800000000000000000E8
:100C70000000000000000000000090900F01966846
:100C800099849982E552E7CFD9FF1200D9CFE6FFC8
:100C9000E1CFD9FF030EE126DF6ADF50146E156A3B
:100CA000200E145C000E15580AE2DF50EA6A000FAD
:100CB000E96E0F0EEA22200EEF6EDF2AEED70F014B
:100CC000206B909090920F01966A999299949990C6
:100CD0001E0EF36E010EF3CFDBFF020EDB6A010E78
:100CE000DBCF14F0DB06020EDBCF15F001E2DB06F2
:100CF0001450151006E0070EE66EB9EC0BF0E55245
:100D0000EED7380EE66EE66A9ADFE552E5521E0E21
:100D1000E66EE5EC0BF0E5520C0EE66EE66A8FDF50
:100D2000E552E5521E0EE66EE5EC0BF0E552010EC3
:100D3000E66EE66A84DFE552E552960EE66EE5EC75
:100D40000BF0E552060EE66EE66A79DFE552E552F3
:100D50001E0EE66EE5EC0BF0E552030EE15C02E2DE
:100D6000E16AE552E16EE552E7CFD9FF1200D9CF33
:100D7000E6FFE1CFD9FF040EE126020EE66EE66A39
:100D80005EDFE552E552010EF36E020EF3CFDBFF9C
:100D9000030EDB6A020EDBCF14F0DB06030EDBCFA3
:100DA00015F001E2DB061450151006E0070EE66EA2
:100DB000B9EC0BF0E552EED73E0EE66EE5EC0BF02B
:100DC000E552DF6A100EDF5C33E2DF50EA6A000FA3
:100DD000E96E0F0EEA22EF5017E1010EDFCFDBFFC5
:100DE000100EF36E010EDBCFF4FFF350F45C0CE257
:100DF000010EDB50EA6A000FE96E0F0EEA22200EA8
:100E0000EF6E010EDB2AECD7DF50EA6A000FE96EC5
:100E10000F0EEA22EF50E66E010EE66E10DFE5528D
:100E2000E5521E0EE66EE5EC0BF0E552DF2ACAD75E
:100E3000C00EE66EE66A03DFE552E5521E0EE66E70
:100E4000E5EC0BF0E552100EDF6E200EDF5C33E2B6
:100E5000DF50EA6A000FE96E0F0EEA22EF5017E149
:100E6000010EDFCFDBFF200EF36E010EDBCFF4FFB0
:100E7000F350F45C0CE2010EDB50EA6A000FE96EFD
:100E80000F0EEA22200EEF6E010EDB2AECD7DF50A8
:100E9000EA6A000FE96E0F0EEA22EF50E66E010ECD
:100EA000E66ECDDEE552E5521E0EE66EE5EC0BF089
:100EB000E552DF2ACAD7040EE15C02E2E16AE5529C
:100EC000E16EE552E7CFD9FF1200010EE66EE66A49
:100ED000B6DEE552E552960EE66EE5EC0BF0E55215
:100EE000200EE66EE66A200EE66E000EE66E0F0E2F
:100EF000E66EBFEC09F0146E050EE15E14501200B0
:100F00009A9088909A92889293869382989A869AD9
:100F1000B196B196CB68CC6AFC0ECA140309CA6EAE
:100F2000870ECA140009CA6ECA84CF0E7314000952
:100F3000736E746A9896F00E73140C09736E98941D
:100F40008694989286923F0EB7140009B76ECF0E22
:100F5000B7140009B76EB86A9890F00EB7140C0970
:100F6000B76E979E859E959883989596839695944F
:100F700083949A8E9A8C9A8A9A889A869986958072
:100F800046EC06F01200D9CFE6FFE1CFD9FF020E02
:100F9000E126B6DF0A0EE66EE66A420E146E170E02
:100FA000156E166A14C0E6FF15C0E6FF16C0E6FF10
:100FB00015EC06F0F3CF17F0F4CF18F017C0E6FFEA
:100FC00018C0E6FF9CEC09F0196E070EE15E19509F
:100FD000B7EC06F081B681D08880B82A742A885090
:100FE000400B01E0010EE66EE66A8350010BE66EEF
:100FF000E66A8850080B01E0010EE66EE66A88504A
:10100000100B01E0010EE66EE66A8850200B01E04D
:10101000010EE66EE66A8750080B01E0010EE66EEF
:10102000E66A8850800B01E0010EE66EE66A2C0E3F
:10103000146E170E156E166A14C0E6FF15C0E6FF93
:1010400016C0E6FF15EC06F0F3CF17F0F4CF18F05A
:1010500017C0E6FF18C0E6FF0CEC0AF0196E130E7D
:10106000E15E1950B850E66EE66A240E146E170E53
:10107000156E166A14C0E6FF15C0E6FF16C0E6FF3F
:1010800015EC06F0F3CF17F0F4CF18F0100E17267A
:10109000000E182217C0E6FF18C0E6FF0CEC0AF09D
:1010A000196E070EE15E1950B7EC06F08384868254
:1010B000640EDE6EDD6ADFCF14F0DF06010EDBCFDB
:1010C00015F001E2DB061450151006E0070EE66E7F
:1010D000B9EC0BF0E552EFD746D088908850400B22
:1010E00001E0010EE66EE66A8350010BE66EE66AE9
:1010F0008850080B01E0010EE66EE66A8850100B7E
:1011000001E0010EE66EE66A8850200B01E0010E58
:10111000E66EE66A8750080B01E0010EE66EE66AAD
:101120008850800B01E0010EE66EE66A2C0E146E0C
:10113000170E156E166A14C0E6FF15C0E6FF16C03E
:10114000E6FF15EC06F0F3CF17F0F4CF18F017C058
:10115000E6FF18C0E6FF0CEC0AF0196E130EE15E14
:101160001950B7EC06F081B205D08394839886922B
:10117000B86A746A2FD7020EE15C02E2E16AE552B6
:0A118000E16EE552E7CFD9FF12003F
:06118A00D9CFE6FFE1CF22
:10119000D9FF020EE126010EDB6AFC0EDBCFF3FF66
:1011A000DB06F350000922E0FD0EDBCFE9FFFE0E67
:1011B000DBCFEAFFEF6A36D8000901E1FCD73CD863
:1011C000DF6E0D0EDF5C03E00A0EDF5C01E10ED086
:1011D000010EDB2AFD0EDBCFE9FFDB2AFE0EDBCFA3
:1011E000EAFF01E3DB2ADFCFEFFFD7D7010EDB50A9
:1011F00000D0146E020EE15C02E2E16AE552E16E9B
:101200001450E552E7CFD9FF1200AC50020B020A8E
:1012100001E0010E00D012004F0EAB16AC9ACF0EBB
:101220009D161200ABA202D0AB98AB889E50200B4B
:1012300001E0010E00D01200AE5000D01200D9CF54
:10124000E6FFE1CFD9FFFE0EDB50AD6EE552E7CFF2
:10125000D9FF1200D9CFE6FFE1CFD9FF020EE12678
:10126000DF6AFC0EDB50DF5C19E2DCDF000901E124
:10127000FCD7E2DFE76E010EE7CFDBFFFD0EDBCF31
:10128000E9FFFE0EDBCFEAFF010EDBCFEFFFFD0E25
:10129000DB2AFE0E01E3DB2ADF2AE3D7020EE15C44
:1012A00002E2E16AE552E16EE552E7CFD9FF1200B2
:1012B000D9CFE6FFE1CFD9FFA8DF000901E0FCD7D5
:1012C000FD0EDBCFE9FFFE0EDBCFEAFFEF50E66E4F
:1012D000B6DFE552FD0EDBCFE9FFDB2AFE0EDBCFEA
:1012E000EAFF01E3DB2AEF50E7E1E552E7CFD9FF60
:1012F0001200D9CFE6FFE1CFD9FF87DF000901E077
:10130000FCD7FD0EDBCFF6FFFE0EDBCFF7FF0800AC
:10131000F550E66E94DFE552FD0EDBCFF6FFDB2ADB
:10132000FE0EDBCFF7FF01E3DB2A0800F550E5E115
:08133000E552E7CFD9FF1200DE
:08133800FB0EE3CFF6FFFC0EF3
:10134000E3CFF7FFFD0EE3CFF8FFFE0EE3CFE9FF9B
:10135000FF0EE3CFEAFFE9CFF3FFEACFF4FFF90E88
:10136000E35003E1FA0EE35009E0F90EE30602E26E
:10137000FA0EE3060900F5CFEEFFF1D71200FE0EDC
:10138000E3CFE9FFFF0EE3CFEAFFE9CFF3FFEACFB8
:10139000F4FFFB0EE35003E1FC0EE35009E0FB0E0B
:1013A000E30602E2FC0EE306FD0EE350EE6EF1D71B
:1013B0001200FE0EE3CFE9FFFF0EE3CFEAFFF36A70
:1013C000F46AEE5203E0F34AF42AFBD71200FF0E50
:1013D000E3CFF8FFE552FF0EE3CFF7FFE552FF0E34
:1013E000E3CFF6FFE552E66AE66AE66A0900F552DF
:1013F00009E0FD0EE32A05E1FE0EE32A02E1FF0EFD
:10140000E32AF4D7FD0EE3CF07F0FE0EE3CF08F09A
:08141000FF0EE3CF09F012000A
:08141800D9CFE6FFDACFE6FFB1
:10142000E1CFD9FFE2CFDAFFE652E652E652E652CA
:10143000D950F90F146EFF0EDA20156E020E14C08B
:10144000DBFF030E15C0DBFF020EDBCFE6FF030E52
:10145000DBCFE6FFF90EDBCFE6FFFA0EDBCFE6FFD0
:10146000FB0EDBCFE6FFD950FC0FE66EFF0EDA2055
:10147000E66E1AEC00F0146E070EE15C02E2E16A1F
:10148000E552E16E1450F3CFDEFFF4CFDDFFFC0E2A
:10149000DBCFE9FFFD0EDBCFEAFFEF6ADECF14F012
:1014A000DDCF15F014C0F3FF15C0F4FF040EE15CAE
:1014B00002E2E16AE552E16EE552E5CFDAFFE7CFFD
:0414C000D9FF12003E
:0C14C400060EF66E000EF76E000EF86EBD
:1014D0000F010900F550266F0900F550276F03E151
:1014E000266701D03DD00900F550216F0900F55065
:1014F000226F0900F550236F09000900F550E96ECD
:101500000900F550EA6E090009000900F550246F42
:101510000900F550256F09000900F6CF28FFF7CF25
:1015200029FFF8CF2AFF21CFF6FF22CFF7FF23CFE5
:10153000F8FF0F01245302E1255307E00900F5509D
:10154000EE6E2407F8E22507F9D728CFF6FF29CF5A
:10155000F7FF2ACFF8FF0F012607000E275BBFD742
:02156000120077
:0E156200D9CFE6FFDACFE6FFE1CFD9FFE2CF27
:10157000DAFFFB0EDBCF14F0FC0EDBCF15F0000121
:10158000800E15141AE1FB0EDBCFE9FFFC0EDBCF5A
:10159000EAFFEECFF3FFEDCFF4FFEE2A000EEF22CD
:1015A000F3CFE9FFF4CFEAFFFD0EDBCFEFFFEF5003
:1015B000156AF36E15C0F4FF10D0FB0EDB50FE0869
:1015C00006E1FD0EDBCFE6FFD7EC0BF005D0FD0EFC
:1015D000DBCFE6FFF9EC0BF0E552E552E5CFDAFFA1
:0615E000E7CFD9FF120065
:0A15E60006500B02F3CF02F0F4CF21
:1015F00003F00C02F3500326000EF420046E065094
:101600000D02F3500426000EF420056E06500E0263
:10161000F350052607500B02F3500326F450042222
:10162000000E052207500C02F3500426F450052248
:1016300007500D02F350052608500B02F350042604
:10164000F450052208500C02F350052609500B02F5
:06165000F3500526120014
:0A16560009C013F008C012F008509C
:101660000D02F4CF07F0F3CF06F009500E02F4CFCD
:1016700009F0F3CF08F00D02F3500726F4500822CA
:10168000E86A092212500E02F3500726F45008228D
:10169000E86A09220EAE51EF0BF01250085E1350AB
:1016A000095A13AE000C0D50085E0E50095A000C7A
:1016B000056A046A036A026A200EE76ED89006364D
:1016C00007360836093602360336043605360B501F
:1016D000025C0C5003580D5004580E50055809E395
:1016E0000B50025E0C50035A0D50045A0E50055A0E
:0816F000062AE72EE4D71200E0
:0816F800800EF36E00EE00F01D
:101700000E0E07D8600EF36E0FEE00F00F0E01D82C
:101710001200EA6002D0EE6AFCD7F350E9601200D2
:04172000EE6AFCD79A
:0C17240076616C3A2025640025642025C5
:1017300064202564202564202564202564202564F8
:0D17400020004920616D20416C6976650034
:02174E00F36A3C
:10175000F46AFF0EE124E96EFF0EE220EA6EED6608
:1017600007D02F0EEF6404D03A0EEF6001D0F32AB9
:02177000120065
:0E177200FF0EE3501B6E480E01D04C0EE76ECA
:10178000E72EFED7E76AE72EFED71B2EF7D700001D
:02179000120045
:0E1792001DEE00F02DEE00F0F86A019C62ECF6
:0E17A0000AF0FAEC0BF0C3EC07F0FBD71200D6
:0217AE00FF0E2C
:1017B000E350ACBA04D0AF6AAB8EAC8A949CACA2B6
:0A17C000FED7AD6EF36EF46A12005E
:0617CA00FF0EE350E84EA3
:1017D0001200000000D000D000D0E82EFAD712008E
:1017E0003031323334353637383961626364656697
:0117F00000F8
:0217F2001200E3
:0217F4001200E1
:020000040001F9
:01FFF800A068
:01FFFA00C541
:01FFFD00F70C
:00000001FF
